:100000000C9462000C94E7140C94E7140C94E7141D
:100010000C94E7140C94E7140C94E7140C94E71474
:100020000C94E7140C94CD140C94E7140C94E7147E
:100030000C94E7140C94E7140C94E7140C94E71454
:100040000C94E7140C94E7140C94E7140C945512D8
:100050000C9479120C94FA130C94EA0F0C94D214A9
:100060000C9490110C94E7140C94E7140C94E7147E
:100070000C94E7140C94E7140C94E7140C94E71414
:100080000C94E7140C94E71488058805B705BC05A3
:10009000D20588058805B705BC0560006D06806D32
:1000A000066D2C0029EA6D2C6D6A806D6A6D7700F3
:1000B0002A106D776DB9806DB96DBB002A1D6DBBBF
:1000C0006DC98000809101108F7C8060806898ED00
:1000D00094BF8093011011241FBECFEFCDBFDFE787
:1000E000DEBFEAE9F0E040E017C0B591A591359197
:1000F0002591059107FD0CC095918591EF01F92F90
:10010000E82F05900D92A217B307D9F7FE0104C09E
:100110001D92A217B307E1F7E33CF40731F70E9401
:0A012000E4140C946F14F894FFCF60
:10012A00696E2073656E64207461736B200A0D001A
:10013A00696E2072656365697665207461736B20E8
:10014A000A0D007175657565206372656174656471
:10015A00200A0D00527800545800707265207363AB
:10016A00686564756C65207374617274200A0D0089
:0F017A0068656C6C6F207368697432200A0D0021
:0D018900546D725100546D72205376630066
:0501960049444C450046
:01019B000360
:10019C00AEE0B0E0E4EDF0E00C9452134C016B01D6
:1001AC0019821A828FEF9FEF8B839C831D821E8294
:1001BC004F83588729873A87A12CB12CD6016D9093
:1001CC007C90F301EA0DFB1D808181110FC0D601DB
:1001DC00ED93FC938081853209F0D3C13F01BFEFD1
:1001EC006B1A7B0AF6016082718219C0853279F331
:1001FC00B401082E000C990B0E94150D4FEFA41A98
:10020C00B40ADCCF8C32ACF08D32F9F489819A814E
:10021C00816089839A833196D601ED93FC93D60144
:10022C00ED91FC9180818B3269F789819A81846090
:10023C00F0CF803221F489819A818860EACF8332B1
:10024C0051F489819A818061E4CF803321F48981D2
:10025C009A818260DECFB701C6010E9437118D836F
:10026C009E8397FF0BC029813A81B1E02B2729830C
:10027C003A839195819591098D839E8389819A8189
:10028C0080FF03C08D7F89839A83D601ED91FC9109
:10029C00119780818E3249F43196ED93FC93B7011E
:1002AC00C6010E9437118B839C83C6010E94BF122A
:1002BC00582ED601ED91FC918081082E000C990BE3
:1002CC000E94A014893609F443C084F4833609F4DF
:1002DC0002C134F4853209F427C18136E1F030C112
:1002EC008436B1F188360CF4D9C02AC1803709F4B0
:1002FC009AC03CF48E3609F4BCC08F3609F461C048
:10030C001FC1853709F440C0883709F476C083379C
:10031C0009F016C1F3C0652D70E0A701CE010B9654
:10032C000E940000892B09F426C1D601ED91FC91A5
:10033C001197CF0101968D939C932081AE01455F5F
:10034C005F4FBE016F5F7F4FC4010E94000010C160
:10035C00652D70E0970141E050E0CE010B960E94B4
:10036C000000892B09F407C1F60180819181019667
:10037C0080839183AE01455F5F4FBE016F5F7F4FFE
:10038C00C4010E940000F4C0652D70E0970140E0AC
:10039C0050E0CE010B960E940000892B09F4EBC0B3
:1003AC00D6018D919C91119701968D939C93AE01E2
:1003BC00455F5F4FBE016F5F7F4FC4010E9400001D
:1003CC00D7C0652D70E0970140E050E0CE010B9650
:1003DC000E940000892B09F4CEC0F6018081918126
:1003EC00019680839183AE01455F5F4FBE016F5FC5
:1003FC007F4FC4010E940000BBC0652D70E09701C7
:10040C0040E050E0CE010B960E940000892B09F4CD
:10041C00B2C0D601ED91FC911197CF0101968D934D
:10042C009C9320811CC0970140E050E060EF70E08D
:10043C00CE010B960E940000892B09F49CC0F6019A
:10044C00808191810196808391838B859C85892BFA
:10045C0029F420E030E041E75DE684C028E7AE01F6
:10046C00455F5F4FBE016F5F7F4FC4010E9400006C
:10047C007FC0A501400F511F652D70E09701CE0183
:10048C000B960E940000892B09F475C0D6018D9142
:10049C009C91119701968D939C9373C0652D70E080
:1004AC00A701CE010B960E940000892B09F463C0B2
:1004BC00D601ED91FC911197CF0101968D939C93F0
:1004CC002081AE01455F5F4FBE016F5F7F4FC4015E
:1004DC000E9400004DC0B0E85B124DC0F601808157
:1004EC009181019680839183D701ED91FC911197B5
:1004FC00CF0102968D939C93808120C0B0E85B1253
:10050C003AC0F60180819181019680839183D70155
:10051C00ED91FC911197CF0102968D939C934081A4
:10052C00518120E030E01EC0B0E85B1224C0F6011F
:10053C00208131812F5F3F4F208331838B870DC00A
:10054C0085E28B87D6016D927C9219821A821D826C
:10055C001E828FEF9FEF8B839C8321E030E0AE01F6
:10056C00455F5F4FBE016F5F7F4FC4010E94BB119F
:10057C008A0D9B1D07C0F6018081918101968083B5
:0C058C009183C5012E96EFE00C949B13A8
:100598004F925F926F927F928F929F92AF92BF928B
:1005A800CF92DF92EF92FF920F93CF93DF934C019C
:1005B8006B015A012901CA010E949E073C01892B3F
:1005C80009F4F5C088E290E00E949E07EC01892BAF
:1005D80081F088E2DE011D928A95E9F76F8A788EAC
:1005E800B1E0AB1AB1086A0C7B1CC114D10429F420
:1005F8001EC0C3010E940F0ADAC0F6018081898FEC
:100608008081882399F0AE01465E5F4F319688E07D
:10061800C80ED11CCF012191DA012D93AD01DC0167
:100628008C91882319F0EC15FD05A1F718A2043068
:1006380008F003E00E8B09A36E01B2E0CB0ED11CCB
:10064800C6010E94DC14CE010C960E94DC14C887F7
:10065800D98784E090E0801B91098C879D87CA8B9D
:10066800DB8BA201B401C3010E94C4138883998360
:10067800E114F10409F49DC0F701C083D18399C046
:10068800C093916DD093926D8091C36D8130E9F5DF
:1006980082EC9CE60E940A148BEC9CE60E940A14E9
:1006A80084ED9CE60E940A148DED9CE60E940A14D3
:1006B80087E49DE60E940A148EE39DE60E940A14D0
:1006C80085E39DE60E940A148CE29DE60E940A14C6
:1006D80087E49DE680938F6D9093906D8EE39DE601
:1006E80080938D6D90938E6D10C08091C16D811136
:1006F8000CC0E091916DF091926D96898E89891761
:1007080020F0C093916DD093926D8091BE6D8F5FF4
:100718008093BE6D8E899091C26D981710F4809366
:10072800C26D90E0FC01EE0FFF1FEE0FFF1FEE0FF2
:10073800FF1F8E0F9F1FFC01EE53F3490180F281CA
:10074800E02DEC83FD83848195818E839F83A48132
:10075800B5811296CD92DC921397C482D582EE8928
:10076800F0E0CF01880F991F880F991F880F991FF4
:10077800E80FF91FEE53F349EA87FB8780818F5F03
:1007880080830F900FBE8091C16D882361F0E09146
:10079800916DF091926D96898E89981730F40E9428
:1007A800EB1481E016C081E014C081E012C08FEF25
:1007B80010C00FB6F8940F928091C36D8F5F80932D
:1007C800C36D8091916D9091926D892B09F08DCFB9
:1007D80057CFDF91CF910F91FF90EF90DF90CF909F
:1007E800BF90AF909F908F907F906F905F904F9049
:0207F800089562
:1007FA000F931F93CF93DF938091BD6D811102C137
:10080A00C0918B6DD0918C6D8E010F5F1F4F00933D
:10081A008B6D10938C6D01151105B9F480918F6D54
:10082A009091906D20918D6D30918E6D20938F6D8A
:10083A003093906D80938D6D90938E6D8091BF6D86
:10084A008F5F8093BF6D0E9419138091876D90917D
:10085A00886D0817190710F480E0B8C080E0E091AD
:10086A008F6DF091906D9081911107C02FEF3FEF3E
:10087A002093876D3093886DA9C0E0918F6DF091B8
:10088A00906D0580F681E02D0680F781E02D2281AA
:10089A0033810217130728F42093876D3093886DEC
:1008AA0095C0A285B3852481358146815781E901A6
:1008BA004C835D832681378144815581E9014A83CE
:1008CA005B83AF014E5F5F4F11962D913C9112975A
:1008DA002417350731F42681378111962D933C93DD
:1008EA001297128613869C9191509C93A489B5897C
:1008FA00109719F12685378560897189E9016C831A
:10090A007D832089318966857785E9016A837B83BE
:10091A0011966D917C9112979F01245F3F4F621748
:10092A00730731F42089318911962D933C931297DC
:10093A00148A158A9C9191509C9326899091C26D34
:10094A00921710F42093C26D30E0D901AA0FBB1F91
:10095A00AA0FBB1FAA0FBB1F2A0F3B1FD901AE53F9
:10096A00B34911960D90BC91A02DA483B58314961A
:10097A002D913C9115972683378314962D913C919E
:10098A001597E9014A835B8314964D935C931597F7
:10099A00A689B0E09D01220F331F220F331F220FB9
:1009AA00331FA20FB31FAE53B349A287B3879C91DB
:1009BA009F5F9C93A091916DB091926D26895696F6
:1009CA009C91921708F04BCF81E049CFE091916D4D
:1009DA00F091926D268930E0F901EE0FFF1FEE0FBC
:1009EA00FF1FEE0FFF1F2E0F3F1FF901EE53F349B2
:1009FA009081923008F081E09091C06D992361F066
:100A0A0081E00AC08091896D90918A6D01968093E8
:100A1A00896D90938A6D80E0DF91CF911F910F913C
:020A2A0008952D
:100A2C00CF93DF93CDB7DEB72697CDBFDEBFCE0118
:100A3C0001966C01882E9D2C0F2EF5E07F2EF02D4B
:100A4C000C2D1D2DE0919B6DF0919C6D8081882368
:100A5C0009F4B9C00580F681E02DE080F1800E9498
:100A6C00AF14882D992D0E94C00E5C0189818111D3
:100A7C001BC0AE14BF0438F00E94FE05B501C701BF
:100A8C000E94651113C040E0B7016A197B0980917F
:100A9C00976D9091986D0E94DF120E94FE05811156
:100AAC0005C00E94EB1402C00E94FE05D601E72D82
:100ABC001D92EA95E9F77AC0898188230CF476C0F7
:100ACC00EC80FD80D7011A968D919C911B97892BF8
:100ADC0021F0C70102960E94E511CE0106960E94F4
:100AEC00C00E5C01E9818E2FEE0F990BAA0BBB0B8C
:100AFC00FC013197E930F10508F058C0EC5BFF4F71
:100B0C000C94C714F70182898160828B2A813B8106
:100B1C0064857585620F731FA501C7010E947D1046
:100B2C00882309F443C0D70152968C91529782FFC7
:100B3C000DC06A817B811C968D919C911D97680FCD
:100B4C00791FA501C7010E94311203C08E7FF701E6
:100B5C00828BD7015096ED91FC915197C701099565
:100B6C0025C0F70182898E7F828B20C0D7015296D7
:100B7C008C915297816052968C9352976A817B81AB
:100B8C001C966D937C931D976A0D7B1D9501A50199
:100B9C00C7010E947D100AC0F701828981FD04C043
:100BAC00C7010E940F0A02C08E7F828B40E050E08A
:100BBC00602F712F8091976D9091986D0E94F00825
:100BCC0081117ACF3FCF0E94AF14882D992D0E94AE
:100BDC00C00E5C018981811167CFE091996DF09114
:100BEC009A6D808141E0811140E0E12CF12C4CCFD9
:100BFC001F93CF93DF930FB6F8940F928091BD6D36
:100C0C0081508093BD6D8091BD6D8111CAC0809162
:100C1C00C36D81119BC0C8C0DB011596ED91FC9191
:100C2C0016970680F781E02DA489B589868597856E
:100C3C0020893189EC012C833D838089918926851B
:100C4C003785EC012A833B83CF010C9611962D91AD
:100C5C003C9112972817390731F4808991891196A4
:100C6C008D939C931297148A158A8C9181508C9336
:100C7C00A285B3858481958126813781EC012C83F3
:100C8C003D838681978124813581EC012A833B83C6
:100C9C009F012E5F3F4F11968D919C911297821759
:100CAC00930731F48681978111968D939C931297BB
:100CBC00128613868C9181508C9386899091C26D8B
:100CCC00981710F48093C26D90E0DC01AA0FBB1F43
:100CDC00AA0FBB1FAA0FBB1F8A0F9B1FDC01AE53B1
:100CEC00B34911960D90BC91A02DA483B583149695
:100CFC008D919C9115978683978314968D919C91D9
:100D0C001597EC012A833B8314962D933C931597EE
:100D1C00A689B0E0CD01880F991F880F991F880F05
:100D2C00991FA80FB91FAE53B349A287B3878C91F3
:100D3C008F5F8C93A091916DB091926D9689569620
:100D4C008C91891740F44093C06D05C0E0E0F0E051
:100D5C0065E37DE641E0DB018C9181115DCFEF2BEA
:100D6C0011F00E941913C091896DD0918A6D209752
:100D7C0061F011E00E94FD0381111093C06D219769
:100D8C00C9F71092896D10928A6D8091C06D88237D
:100D9C0051F08091916D9091926D0E94EB1481E0D5
:100DAC0003C080E001C080E00F900FBEDF91CF91B7
:040DBC001F910895E6
:100DC000CF93DF93DC011596ED91FC911697068089
:100DD000F781E02DA489B589C685D7858089918959
:100DE0008C839D83C089D189868597858A839B83DF
:100DF0009F01245F3F4F11968D919C91129782170E
:100E0000930731F48089918911968D939C93129761
:100E1000148A158A8C9181508C938091BD6D8111BB
:100E200060C0A285B385C481D581868197818C837A
:100E30009D83C681D781848195818A839B839F010D
:100E40002E5F3F4F11968D919C91129782179307B9
:100E500031F48681978111968D939C931297128617
:100E600013868C9181508C9386899091C26D9817CE
:100E700010F48093C26D90E0DC01AA0FBB1FAA0F93
:100E8000BB1FAA0FBB1F8A0F9B1FDC01AE53B349C8
:100E900011960D90BC91A02DA483B58314968D91CD
:100EA0009C911597868397831496CD91DC91159725
:100EB0002A833B8314962D933C931597A689B0E023
:100EC000CD01880F991F880F991F880F991FA80FB0
:100ED000B91FAE53B349A287B3878C918F5F8C93B0
:100EE0001CC045E35DE6DA011196CD91DC911297C5
:100EF000C687D7878C819D81808B918B8C819D81CA
:100F0000DC0112962D933C9313972C833D83448BE5
:100F1000558BDA018C918F5F8C93A091916DB0917C
:100F2000926D968956968C91891720F481E0809372
:0C0F3000C06D01C080E0DF91CF910895FA
:100F3C000F931F93CF93DF939C01215031092B3FCB
:100F4C003F4F18F4EC01249602C0C0E0D0E00E94A0
:100F5C00AF148091836D9091846D892B11F5E7E727
:100F6C00FDE6A2E0B0E6A083B18312821382EEEF1D
:100F7C00FBE6E093836DF093846D128213821082F2
:100F8C0011828CEF9BE012968D939C931397ED93AB
:100F9C00FC9380937F6D9093806D8093816D909383
:100FAC00826D1C161D060CF069C08091816D9091AC
:100FBC00826D8C179D0708F464C0E091776DF091F9
:100FCC00786D67E77DE602C0BF01F90122813381AC
:100FDC002C173D0728F42081318121153105A1F70B
:100FEC002091836D3091846DE217F30709F44CC0A6
:100FFC00DB010D911C9111970C5F1F4F20813181EA
:10100C002D933C93228133812C1B3D0B29303105D0
:10101C0098F0AF014C0F5D1FDA0112962D933C93A3
:10102C001397C283D383DB012D913C91DA012D936D
:10103C003C93DB014D935C9322813381821B930B98
:10104C008093816D9093826D40917F6D5091806DF6
:10105C008417950720F480937F6D9093806D306892
:10106C00228333831082118280917D6D90917E6DED
:10107C00019680937D6D90937E6D08C000E010E02A
:10108C0005C000E010E002C000E010E00E94FE0588
:0C109C00C801DF91CF911F910F910895C2
:1010A800AF92BF92CF92DF92EF92FF920F931F936E
:1010B800CF93DF93CDB7DEB72597CDBFDEBF8C01C9
:1010C8006B014C835D83A22EB12C7C0188E0E80E75
:1010D800F11C0FB6F8940F92F801928D838D981732
:1010E80018F0F2E0AF1219C04A2DB601C8010E94EB
:1010F8001B0CF8019189992349F0C80141960E9477
:10110800E006882331F00E94EB1403C081110E948D
:10111800EB140F900FBE81E051C08C819D81892B0B
:1011280021F40F900FBE80E049C0B11006C0CE0177
:1011380001960E946414BB24B3940F900FBE0E94C2
:10114800AF140FB6F8940F92F801858D8F3F09F40C
:10115800158EF801868D8F3F09F4168E0F900FBEFD
:10116800BE016C5F7F4FCE0101960E94780F8111FE
:101178001FC00FB6F8940F92F801928D0F900FBE12
:10118800838D98130FC06C817D81C7010E94D7138E
:10119800C8010E94C80C0E94FE0581119ACF0E94C6
:1011A800EB1497CFC8010E94C80C0E94FE0591CF8E
:1011B800C8010E94C80C0E94FE0580E02596CDBF9C
:1011C800DEBFDF91CF911F910F91FF90EF90DF90DD
:0811D800CF90BF90AF90089585
:1011E000AF92BF92CF92DF92EF92FF920F931F9335
:1011F000CF93DF93CDB7DEB72597CDBFDEBF8C0190
:101200005B014C835D83E12C6C0181E1C80ED11C34
:101210000FB6F8940F92F801F28CFF20A9F0B501F7
:10122000C8010E943513FA94F801F28E8085882354
:1012300039F0C80108960E94E00681110E94EB1463
:101240000F900FBE81E052C08C819D81892B21F4CB
:101250000F900FBE80E04AC0E11006C0CE0101969B
:101260000E946414EE24E3940F900FBE0E94AF140A
:101270000FB6F8940F92F801858D8F3F09F4158E03
:10128000F801868D8F3F09F4168E0F900FBEBE01B8
:101290006C5F7F4FCE0101960E94780F81111AC0BA
:1012A000C8010E945914882379F06C817D81C601A0
:1012B0000E94D713C8010E94C80C0E94FE0581112C
:1012C000A7CF0E94EB14A4CFC8010E94C80C0E94B3
:1012D000FE059ECFC8010E94C80C0E94FE05C801F1
:1012E0000E945914882309F493CF80E02596CDBF3E
:1012F000DEBFDF91CF911F910F91FF90EF90DF90B4
:08130000CF90BF90AF9008955B
:10130800BF92CF92DF92EF92FF920F931F93CF93EA
:10131800DF93EC01B62E00918B6D10918C6DE090EF
:101328008F6DF090906DC0908D6DD0908E6D809186
:10133800916D9091926D02960E94E511CF3F8FEFCB
:10134800D807B1F5BB20A1F1ECE2FDE6A181B2819D
:10135800C091916DD091926DAC83BD83C091916D18
:10136800D091926D14968D919C9115978E839F8341
:101378001496CD91DC9115978091916D9091926D15
:1013880002968A839B838091916D9091926D0296CB
:1013980014968D939C931597A091916DB091926D31
:1013A8001A96ED93FC931B9780818F5F808329C0E9
:1013B800C00FD11FE091916DF091926DC283D383DC
:1013C800C017D10750F46091916D7091926D6E5F66
:1013D8007F4FC6010E941C1014C06091916D7091DE
:1013E800926D6E5F7F4FC7010E941C108091876DC0
:1013F8009091886DC817D90720F4C093876DD09352
:10140800886DDF91CF911F910F91FF90EF90DF9042
:06141800CF90BF90089583
:10141E00CF93DF93009709F471C0FC01349742819A
:10142E00538155230CF06AC020813181232B09F0A2
:10143E0065C0EC015F77428353834430510530F031
:10144E004450510960E070E00E948F1424970E946E
:10145E00AF144A815B818091816D9091826D840F72
:10146E00951F8093816D9093826DE7E7FDE601C035
:10147E00FC01808191818C179D07D0F322813381ED
:10148E00BF01620F731FC617D70729F4240F351F2C
:10149E0022833383EF012A813B81DE01A20FB31F2A
:1014AE008A179B07C9F48091836D9091846DA8175C
:1014BE00B90779F012968D919C911397280F391FC9
:1014CE002A833B83A081B1818D919C9188839983DE
:1014DE0005C0A883B98302C088839983EC17FD07E2
:1014EE0011F0C083D18380917B6D90917C6D0196BC
:1014FE0080937B6D90937C6D0E94FE05DF91CF9162
:02150E0008953E
:10151000CF93DF9380E094E0FC011482C0E4D4E038
:101520001C82A0E6B4E020E414962C93149740EAC1
:1015300054E0FA011482FC01108218822C9324E0FA
:10154000FA012083FC01108A118A128A138A148AF4
:10155000158A168A178A188A198A1A8A1B8A1C8A77
:101560001D8A1E8A1F8A50961C92509751961C9273
:10157000519752961C92529753961C925397549699
:101580001C92549755961C92559756961C925697B6
:1015900057961C92FA01108A118A80E8828B138A6E
:1015A000148A158A168A178AE0EEF5E011821082F5
:1015B000158217821086168280E182838CEE94E178
:1015C0008093A36D9093A46D8DEE94E18093A16DB3
:1015D0009093A26D8EEE94E180939F6D9093A06D99
:0615E000DF91CF91089598
:1015E600EF92FF920F931F93CF93DF93FC01362F59
:1015F600892B09F44CC0238D222309F44AC0022FFB
:1016060010E0448DE42EF12C8FEF9FEFB8010E947D
:10161600B0136E157F0508F43EC0EF010FB6F894BF
:101626000F9260817181CB01249F800D911D112441
:1016360084839583128E62837383015011090E9DF4
:10164600C0010F9D900D1E9D900D1124860F971FB2
:10165600868397838FEF858F868F31110CC08085A7
:10166600882389F0CF0108960E94E006882359F066
:101676000E94EB1408C0CF0108960E940A14CE01FE
:1016860041960E940A140F900FBE81E005C080E0CB
:1016960003C080E001C080E0DF91CF911F910F91E0
:0616A600FF90EF90089593
:1016AC000F931F93CF93DF93FC01892B09F451C047
:1016BC0082A1815082A3268991A1291709F44BC0DC
:1016CC0081114BC0EF018F010E5F1F4FC8010E94AB
:1016DC00E51189A18E8B24E030E0281B31092C8781
:1016EC003D879091C26D981710F48093C26D90E075
:1016FC00FC01EE0FFF1FEE0FFF1FEE0FFF1F8E0FF3
:10170C009F1FFC01EE53F3490180F281E02DEC8325
:10171C00FD83848195818E839F83A481B5811296EC
:10172C000D931C93139704831583EE89F0E0CF017E
:10173C00880F991F880F991F880F991FE80FF91FA1
:10174C00EE53F349EA87FB8780818F5F808381E0CA
:10175C0005C080E003C080E001C080E0DF91CF9144
:06176C001F910F9108958A
:10177200E091C66DF0E0EE0FFF1FEE57F3491082C5
:1017820011828091010882FF11C0E091C66DF0E0E4
:10179200EE0FFF1FEE57F349808182608083E09154
:1017A200AD6DF091AE6D309709F009958091010809
:1017B20081FF0CC0EFEAFDE6808181608083E091C9
:1017C200A96DF091AA6D309709F0099580910108F1
:1017D20086FF11C0E091C66DF0E0EE0FFF1FEE57DD
:1017E200F349808184608083E091AB6DF091AC6DB0
:1017F200309709F00995209100088091C66D8F5F9E
:101802008F719091C56D891769F0E091C66DF0E016
:10181200EA51F34920838093C66D8091C46D8F5F36
:101822008093C46DE091A56DF091A66D309709F09B
:041832000995089577
:101836000F931F93CF93DF93EC01042F1A8D4C8DDA
:1018460041110CC088819981892B09F042C08C8195
:101856009D810E94560B1C821D8242C0011117C039
:1018660050E08A819B810E947A142C8D8A819B810B
:10187600820F911D8A839B832C813D81821793075A
:1018860050F1888199818A839B8380E029C050E04A
:101896008E819F810E947A148C8D90E0919581951E
:1018A60091092E813F81280F391F2E833F8348815E
:1018B60059812417350730F42C813D81820F931FFF
:1018C6008E839F83023049F4112349F0115080E042
:1018D60007C080E005C080E003C080E001C080E072
:0E18E6001F5F1A8FDF91CF911F910F91089510
:1018F400EF92FF920F93CF93DF93CDB7DEB7289784
:10190400CDBFDEBF89E48983E7E9F1E8DE01129601
:101914002EE931E881918D93882319F0E217F307BA
:10192400C9F70F2EF5E8EF2EFDE6FF2EF02D00E0AF
:1019340020E030E040E850E0BE016F5F7F4F88E96F
:1019440094E10E94CC028823B1F08130A1F40E947A
:101954009D12813081F4F8948FEF9FEF8093876D0F
:101964009093886D81E08093C16D10928B6D10927D
:101974008C6D0E94A81480919B812896CDBFDEBFF8
:0C198400DF91CF910F91FF90EF9008953C
:10199000EF92FF920F931F93CF938C010FB6F894A1
:1019A0000F92FC01C68D1C16ACF48189811106C012
:1019B00011C0F8018189811105C00CC07801F1E1E5
:1019C000EF0EF11CC7010E94E00681110E94E01495
:1019D000C15079F78FEFF801868F0F900FBE0FB6C9
:1019E000F8940F92C58D1C16ACF48085811106C049
:1019F00011C0F8018085811105C00CC07801F8E0A4
:101A0000EF0EF11CC7010E94E00681110E94E01454
:101A1000C15079F78FEFF801858F0F900FBECF91EE
:0A1A20001F910F91FF90EF900895C1
:101A2A000F931F93CF93DF93DB01109719F48FEF76
:101A3A009FEF3DC02D913C91119730FF25C016961E
:101A4A004D915C91179714962D913C9115974217D9
:101A5A00530778F41296ED91FC91139780831296AE
:101A6A002D913C9113972F5F3F4F12962D933C93E4
:101A7A00139716962D913C9117972F5F3F4F169605
:101A8A002D933C93179713C01C96ED91FC911D97CB
:101A9A00309769F2EB01092F182F0995892B39F62E
:101AAA008E819F8101968E839F83812F902FDF9154
:081ABA00CF911F910F910895D7
:101AC2000F931F93CF93DF93FC018B01A181B2810E
:101AD2008091916D9091926DEC01AE87BF8780915C
:101AE200916D9091926D14962D913C911597EC0108
:101AF200288B398B14968D919C9115972091916D1D
:101B02003091926D245F3F4FEC012A833B832091F9
:101B1200916D3091926D245F3F4F14962D933C93BB
:101B22001597A091916DB091926D5496ED93FC939F
:101B3200559790819F5F9083442311F00FEF1FEF21
:101B4200642FC8010E948409DF91CF911F910F91E8
:021B52000895F4
:101B540040E068ED80E690E00E94D71440E068ED34
:101B640081E690E00E94D71440E068ED88E790E0B9
:101B74000E94D7144CE068ED88E690E00E94D714E8
:101B840040E068ED89E690E00E94D71440E068EDFB
:101B94008CE790E00E94D71440E068ED82E690E084
:101BA4000E94D71440E068ED83E690E00E94D714C9
:101BB40040E068ED84E690E00E94D71440E068EDD0
:101BC40080E890E00E94D71444E068ED86E690E057
:101BD4000E94D714E0E6F0E0858181FFFDCF0895EF
:101BE4000F931F93CF93DF938C01EB010E94AF14EB
:101BF40040918B6D50918C6DF80120813181C90128
:101C04008C0F9D1F4217530778F48217930720F512
:101C1400C1E04817590708F0C0E0F80180839183B8
:101C24004817590768F407C08217930780F04817CC
:101C3400590768F011C060E0841B950B0E94840969
:101C44000E94FE0581110DC00E94EB140AC0F80128
:101C540080839183C1E0EFCFF80180839183C0E05A
:0E1C6400EFCF8C2FDF91CF911F910F9108953C
:101C72006115710509F440C02091646D3091656D64
:101C82008217930779F4E0E0F0E005C0E1E0F0E0CC
:101C920002C0E1E0F0E0EE0FFF1FEE0FFF1FEE5972
:101CA200F24912C02091626D3091636D232BE1F4F1
:101CB2002091686D3091696D8217930739F3E2E6DE
:101CC200FDE602C0E6E6FDE63097B1F0608371837F
:101CD2008283938308952091666D3091676D232BE3
:101CE20089F3E0E0F0E0F0CF2091686D3091696D0A
:0A1CF2008217930771F2EFCF0895F7
:101CFC000F931F93CF93DF93282F362F882361F1F7
:101D0C00082F10E0E62FF0E08FEF9FEFB8010E9454
:101D1C00B0136E177F0718F1239FC0011124813E69
:101D2C00910504F5D32FC22F4F960E949E078C016C
:101D3C000097D1F0D11104C0FC018083918304C0C1
:101D4C004F96F80180839183F801C38FD48F61E0A3
:101D5C00C8010E94F30A08C000E010E005C000E0D2
:101D6C0010E002C000E010E0C801DF91CF911F919C
:041D7C000F91089526
:101D80000F931F93CF93DF938C010E948514EC0176
:101D90008091936D9091946DC817D90738F5E091B3
:101DA0009B6DF0919C6D8081882381F00580F68188
:101DB000E02D6FEF7FEF808191810E946511E091AE
:101DC0009B6DF0919C6D80818111F0CF8091996D18
:101DD00090919A6D80939B6D90939C6DE093996D1B
:101DE000F0939A6D81E0F801808302C0F8011082BF
:101DF000C093936DD093946DCE01DF91CF911F91DD
:041E00000F910895A1
:101E0400A2E8B0E0E8E0FFE00C9455135C014A015D
:101E1400CF57DF4F68837983C158D040C12CD12C70
:101E2400CF57DF4FE881F981C158D04080818823A2
:101E3400E9F07401860120E830E0AE014F5F5F4FA6
:101E4400BE016F577F4FC5010E94CE008C0D9D1DB2
:101E54008C159D054CF48FE490E080930060909382
:101E640001608FEF9FEF03C06C01DACFC601CE573C
:081E7400DF4FECE00C949E131B
:101E7C0040E064E081E00E947E0E80939D6D909323
:101E8C009E6D8DE491E89F938F930E9468130F9041
:101E9C000F9080919D6D90919E6D892B11F1E12C8D
:101EAC00F12C02E020E030E040E850E06EE571E813
:101EBC008DE490E10E94CC0201E020E030E040E8AB
:101ECC0050E061E671E88BED90E10E94CC0284E673
:101EDC0091E89F938F930E9468130E947A0C0F9045
:041EEC000F90FFCF85
:101EF000CF93DF930FB6F8940F9220918B6D3091B2
:101F00008C6DDB014D915C914F3FBFEF5B0719F189
:101F1000EC01E981FA81A091BF6DB881BA1741F057
:101F20002E173F0728F0FB011082118281E014C0B8
:101F30002E1B3F0B2417350748F4FB01421B530BA4
:101F4000408351830E94641480E006C0DB011D922F
:101F50001C9281E001C080E00F900FBEDF91CF9115
:021F60000895E2
:101F6200A0E0B0E0E7EBFFE00C9455136C015B01DD
:101F72007A01E901480181E08822992400FD03C029
:101F82004217530750F0A701B501C6010E94FC1287
:101F9200EC16FD0610F0C70117C08E010E191F09BD
:101FA2000115110541F0B60180E290E00E94150D85
:101FB20001501109F5CF8114910429F4A701B5014B
:101FC200C6010E94FC12CE01CDB7DEB7ECE00C9444
:021FD2009E135C
:101FD4001F920F920FB60F9211242F933F934F939A
:101FE4005F936F937F938F939F93AF93BF93EF937D
:101FF400FF937F9B05C0E091A36DF091A46D0995BB
:102004007E9B05C0E091A16DF091A26D09958FEFC3
:102014008FB9FF91EF91BF91AF919F918F917F9174
:102024006F915F914F913F912F910F900FBE0F9041
:042034001F9018954C
:10203800CF93DF93EB01488159814F3F2FEF520730
:1020480021F4FC01A781B0850DC0DC01139601C005
:10205800DF011296ED91FC9113972081318142178F
:102068005307B0F71296ED91FC911397EA83FB831F
:10207800C483D583AC83BD831296CD93DC93139729
:1020880088879987FC0120812F5F2083DF91CF917A
:022098000895A9
:10209A00CF93DF9300D000D0CDB7DEB78AE391E8C3
:1020AA009F938F930E9468130F900F900F2EF0EA60
:1020BA00EF2EF4E0FF2EF02D14E04FEF5FEFBE019C
:1020CA006F5F7F4F80919D6D90919E6D0E94F00889
:1020DA0089819A81AB81BC8184369105A105B105BC
:1020EA0061F7F701168319821A821B821C82E5CFD7
:1020FA00FC0162837383808791874617570790F0A4
:10210A00421B530B8485958548175907E0F4BF0194
:10211A006E5F7F4F8091996D90919A6D0E941C100D
:10212A0080E008954217530718F46217730768F49A
:10213A00BF016E5F7F4F80919B6D90919C6D0E9455
:0E214A001C1080E0089581E0089581E0089562
:102158000FB6F8940F928091976D9091986D892B96
:1021680019F589E59DE60E940A1480E59DE60E941E
:102178000A1489E59DE680939B6D90939C6D80E59C
:102188009DE68093996D90939A6D40E065E084E0B8
:102198000E947E0E8093976D9093986D009721F022
:0E21A80069E871E80E94390E0F900FBE08958D
:1021B600CF93DF93CDB7DEB72697CDBFDEBF8AE2DA
:1021C60091E89F938F930E94681384E690E0A0E0C5
:1021D600B0E08B839C83AD83BE830E948514898384
:1021E6009A830F900F9068EC70E0CE0101960E94E2
:1021F600F20D20E040E050E0BE016D5F7F4F809120
:0C2206009D6D90919E6D0E945408EDCFDC
:10221200E0E2F8E08BE890E080879187158280EC1D
:10222200868383E0878313861486168615868FEE4F
:1022320094E18093B56D9093B66D80EF94E18093B5
:10224200B36D9093B46D81EF94E18093B16D9093EF
:10225200B26D1092B76D1092B86DE091B96DF091B8
:0C226200BA6D8CE19DE6808391830895A5
:10226E00DC01ED91FC91119780818A3221F080E0A2
:10227E0090E03AE00EC03196ED93FC93DB01ED91C8
:10228E00FC911197CF0102968D939C938081918141
:10229E000895ED91FC911197208120532A3068F416
:1022AE00389FA001399F500D1124CA01820F911D34
:0C22BE003196ED93FC931197ECCF08953E
:1022CA00EF92FF920F931F93CF93DF938C017B01C1
:1022DA00E0919B6DF0919C6D0580F681E02DC681A1
:1022EA00D781CE0102960E94E5118A8982FF06C033
:1022FA00A701B801CE010E94311202C08E7F8A8BDB
:10230A00E889F989CE010995DF91CF911F910F9143
:06231A00FF90EF90089512
:102320001F920F920FB60F9211242F933F934F934A
:102330005F936F937F938F939F93AF93BF93EF932D
:10234000FF93BA9B05C0E0919F6DF091A06D099538
:102350008FEF87BBFF91EF91BF91AF919F918F91CD
:102360007F916F915F914F913F912F910F900FBE91
:062370000F901F9018956C
:10237600A0E0B0E0E1ECF1E10C9457137C01FB0125
:10238600EA01C901A280B380C480D5800081118191
:10239600209711F4CAE6DDE6009719F4CE010E94F3
:1023A6001814B7FC04C0A816B90608F4C5019601AE
:1023B600AC01BE01C7010E94B10FCDB7DEB7EAE09E
:0423C6000C94A013C0
:1023CA00CF93DF93FC01A085B185C281D38184813B
:1023DA0095818C839D83C481D581828193818A83EF
:1023EA009B8311968D919C911297E817F90731F406
:1023FA008481958111968D939C93129710861186EC
:0E240A008C9181508C938C91DF91CF9108952D
:102418008091C76D8823A4F0E091C86DF0E0EE5F6D
:10242800F3498081809302088091C86D8F5F8F7710
:102438008093C86D8091C76D8F5F8093C76D05C00D
:10244800E0E0F8E085818F7D8583E091A76DF091CC
:0A245800A86D309709F0099508956A
:10246200EF92FF920F931F93CF93DF93EC018B01B7
:102472007A0108C08C859D85080F191FE889F989A2
:10248200CE0109956C857D85600F711F9801A701AA
:10249200CE010E947D108111EDCFDF91CF911F916E
:0824A2000F91FF90EF900895E7
:1024AA001F920F920FB60F9211242F933F934F93BF
:1024BA005F936F937F938F939F93AF93BF93EF93A2
:1024CA00FF930E94B90BFF91EF91BF91AF919F913A
:1024DA008F917F916F915F914F913F912F910F90C3
:0824EA000FBE0F901F90189522
:1024F2001F920F920FB60F9211242F933F934F9377
:102502005F936F937F938F939F93AF93BF93EF9359
:10251200FF930E940C12FF91EF91BF91AF919F9197
:102522008F917F916F915F914F913F912F910F907A
:082532000FBE0F901F901895D9
:10253A00EF92FF920F930E94AC108091976D909149
:10254A00986D892B91F00F2EF5E9EF2EFDE6FF2EFF
:10255A00F02D02E020E030E040E850E06EE871E85B
:10256A0086E195E00E94CC0201C080E00F91FF90C5
:04257A00EF90089541
:10257E00CF93DF93EC0190E0E92FF0E0EE0FFF1F19
:10258E00EA5FF2498081811102C081810EC0A8816B
:10259E00B9812C91821305C091811196A883B983BC
:1025AE0001C09F5F9B3040F3892FDF91CF9108953B
:1025BE00CF93DF93EC010FB6F8940F928D8D8F3F72
:1025CE0009F41D8E8E8D8F3F09F41E8E0F900FBE57
:1025DE008A8D811104C0CE0141960E94610DCE01FB
:0A25EE000E94C80CDF91CF91089500
:1025F800A0E0B0E0E2E0F3E10C9459136C01EB01C8
:102608008A017B01E40EF51ECE15DF0541F08991A4
:10261800B601082E000C990B0E94150DF5CFC801C4
:0A262800CDB7DEB7E8E00C94A21372
:10263200E0918F6DF091906D8081811107C08FEFD5
:102642009FEF8093876D9093886D0895E0918F6DD1
:10265200F091906D0580F681E02D808191818093CB
:08266200876D9093886D0895C7
:10266A00FC01448D4423A9F050E026813781240FD0
:10267A00351F26833783848195812817390720F0EF
:10268A008081918186839783CB01668177810E94BD
:04269A007A14089511
:10269E002F923F924F925F926F927F928F929F9264
:1026AE00AF92BF92CF92DF92EF92FF920F931F9352
:1026BE00CF93DF93CDB7DEB7CA1BDB0BCDBFDEBF2B
:0226CE0009946D
:1026D000A0E0B0E0EEE6F3E10C945F13AE014B5FD7
:1026E0005F4FFA0161917191AF01E091B96DF09185
:1026F000BA6D808191810E948013E2E00C94A8134E
:10270000A2E0B0E0E6E8F3E10C945D138C014983AC
:102710005A83AE014F5F5F4F0E94020FF801208184
:1027200024FF02C08FEF9FEF2296E4E00C94A613E3
:102730002A88398848885F846E847D848C849B8451
:10274000AA84B984C884DF80EE80FD800C811B815F
:10275000AA81B981CE0FD11DCDBFDEBFED01089595
:10276000AA1BBB1B51E107C0AA1FBB1FA617B707B7
:1027700010F0A61BB70B881F991F5A95A9F78095D3
:082780009095BC01CD01089504
:10278800FC0160833197708331971082319720E87C
:102798002083319710823197108277974083319741
:0627A800508384970895A0
:1027AE00CF93DF93EB016091916D7091926D645FA9
:1027BE007F4F0E941C1061E0CE010E948409DF91C0
:0427CE00CF9108950A
:1027D200E0E0FBE084E090E0848795871286138630
:1027E20011821086148215821682118681E08083FE
:0227F200089548
:1027F4008F938FB78F93EF93FF93E0E0F8E084819A
:1028040080648483FF91EF918F918FBF8F9118958E
:10281400FC010396818392832FEF3FEF238334835C
:0C28240085839683878390871082089537
:10283000FC01AF014F5F5F4F2081222311F0FA01AD
:0C284000F8CF9F01281B390BC901089537
:10284C00C0EAD4E014E01C838AE791E89F938F934D
:0A285C000E9468131E830E943E0FC5
:102866000E94AA0D0E94880A0E94E9130E9409117B
:0A2876000E9440140E9426140895E9
:1028800040E068ED80E191E00E94D714E0E1F1E0E2
:0A28900012821382789480E008950C
:10289A00CF93C82F0E94C1148823E1F3C093220862
:0828AA0080E090E0CF91089559
:1028B2000FB6F8940F92FC01928D0F900FBE81E03B
:0628C200911180E0089571
:1028C8002091BF6DFC01208320918B6D30918C6D20
:0628D80021833283089504
:1028DE00EC010E94F3140E94F214CE010E94F41433
:0628EE00CE010E94E91476
:1028F400FB01DC01480F591FA417B50719F02191FA
:062904002D93FACF0895A7
:10290A000FB6F8940F9280918B6D90918C6D0F9009
:04291A000FBE08954F
:10291E00FC01480F591FE417F50711F06193FBCF27
:02292E0008950A
:10293000C2ECDCE688818230E8F30E94EB14FACF27
:102940009C01215431092A31310508F4806208952F
:0E2950000E94BB140E94B514089581E0089502
:0C295E008091BD6D8F5F8093BD6D08956A
:0C296A00E0E0FBE0808181608083089544
:0C297600E0E0FBE085818160858308952E
:0C2982008091240885FB882780F90895C7
:0C298E00EE0FFF1F0590F491E02D09945E
:0A299A008F938FEF83B98F9118958A
:0A29A4008F938FEF8BB98F91189578
:0A29AE001BBEFC0164BF40830895C6
:0829B800FC0110861186089550
:0829C00081E08093C06D0895D1
:0629C8000E943314FFCF52
:0429CE000C94000065
:0429D2000E949300CC
:0229D600089562
:0229D800089560
:0229DA0008955E
:0229DC0008955C
:0229DE0008955A
:0229E000089558
:0229E200089556
:0229E400089554
:0229E600089552
:0229E800089550
:1029EA0068076C094C836A9074A07AC00080688872
:0629FA0000846C820081E4
:102A00000300000000000000000000004D14000062
:072A1000286E756C6C2900B3
:062A1700286E696C290025
:022A1D00BB6D8F
:02000004008278
:0C0000000000000000D008000000030019
:00000001FF
