:100000000C945A000C94D10B0C94D10B0C94D10B82
:100010000C94D10B0C94D10B0C94D10B0C94D10BF0
:100020000C94D10B0C94BE0B0C94D10B0C94D10BF3
:100030000C94D10B0C94D10B0C94D10B0C94D10BD0
:100040000C94D10B0C94D10B0C94D10B0C94DA09B9
:100050000C94FE090C942C0B0C943B070C94C30BD2
:100060000C9436090C94D10B0C94D10B0C94D10B3D
:100070000C94D10B0C94D10B0C94D10B0C94220842
:100080000C940A090C94DE08600060E28060E26172
:10009000150017C061156139806139613B0017F3A4
:1000A000613B614280614261430001796143614487
:1000B0000017F500809101108F7C8060806898EDBA
:1000C00094BF8093011011241FBECFEFCDBFDFE797
:1000D000DEBFE8E8F0E040E017C0B591A5913591AA
:1000E0002591059107FD0CC095918591EF01F92FA0
:1000F000E82F05900D92A217B307D9F7FE0104C0AF
:100100001D92A217B307E1F7E33BF40731F70E9412
:0A01100061090C948A0BF894FFCFEC
:10011A00256325632563006E6F7465206F6E2C203E
:10012A006368616E6E656C3A2025690A0D00696E16
:10013A00697469616C2076656C6F636974793A20B9
:10014A0025750A0D006E6F7465206F66662C206334
:0D015A0068616E6E656C3A2025690A0D0023
:100167000A48656C6C6F204D696469476C6F7665EA
:020177000D0079
:010179006421
:10017A00AEE0B0E0E3ECF0E00C94A80A4C016B01AD
:10018A0019821A828FEF9FEF8B839C831D821E82B6
:10019A004F83588729873A87A12CB12CD6016D90B5
:1001AA007C90F301EA0DFB1D808181110FC0D601FD
:1001BA00ED93FC938081853209F0D3C13F01BFEFF3
:1001CA006B1A7B0AF6016082718219C0853279F353
:1001DA00B401082E000C990B0E941A064FEFA41ABC
:1001EA00B40ADCCF8C32ACF08D32F9F489819A8171
:1001FA00816089839A833196D601ED93FC93D60167
:10020A00ED91FC9180818B3269F789819A818460B2
:10021A00F0CF803221F489819A818860EACF8332D3
:10022A0051F489819A818061E4CF803321F48981F4
:10023A009A818260DECFB701C6010E94B0088D8321
:10024A009E8397FF0BC029813A81B1E02B2729832E
:10025A003A839195819591098D839E8389819A81AB
:10026A0080FF03C08D7F89839A83D601ED91FC912B
:10027A00119780818E3249F43196ED93FC93B70140
:10028A00C6010E94B0088B839C83C6010E94680A3B
:10029A00582ED601ED91FC918081082E000C990B05
:1002AA000E94B00B893609F443C084F4833609F4FA
:1002BA0002C134F4853209F427C18136E1F030C134
:1002CA008436B1F188360CF4D9C02AC1803709F4D2
:1002DA009AC03CF48E3609F4BCC08F3609F461C06A
:1002EA001FC1853709F440C0883709F476C08337BF
:1002FA0009F016C1F3C0652D70E0A701CE010B9677
:10030A000E940000892B09F426C1D601ED91FC91C7
:10031A001197CF0101968D939C932081AE01455F81
:10032A005F4FBE016F5F7F4FC4010E94000010C182
:10033A00652D70E0970141E050E0CE010B960E94D6
:10034A009204892B09F407C1F601808191810196F3
:10035A0080839183AE01455F5F4FBE016F5F7F4F20
:10036A00C4010E942004F4C0652D70E0970140E0AA
:10037A0050E0CE010B960E949204892B09F4EBC03F
:10038A00D6018D919C91119701968D939C93AE0104
:10039A00455F5F4FBE016F5F7F4FC4010E94AE068B
:1003AA00D7C0652D70E0970140E050E0CE010B9672
:1003BA000E949204892B09F4CEC0F60180819181B2
:1003CA00019680839183AE01455F5F4FBE016F5FE7
:1003DA007F4FC4010E94C105BBC0652D70E0970123
:1003EA0040E050E0CE010B960E949204892B09F45A
:1003FA00B2C0D601ED91FC911197CF0101968D9370
:10040A009C9320811CC0970140E050E060EF70E0AF
:10041A00CE010B960E949204892B09F49CC0F60126
:10042A00808191810196808391838B859C85892B1C
:10043A0029F420E030E04FE051E684C028E7AE011D
:10044A00455F5F4FBE016F5F7F4FC4010E94BB02D1
:10045A007FC0A501400F511F652D70E09701CE01A5
:10046A000B960E940000892B09F475C0D6018D9164
:10047A009C91119701968D939C9373C0652D70E0A2
:10048A00A701CE010B960E940000892B09F463C0D4
:10049A00D601ED91FC911197CF0101968D939C9312
:1004AA002081AE01455F5F4FBE016F5F7F4FC40180
:1004BA000E9400004DC0B0E85B124DC0F601808179
:1004CA009181019680839183D701ED91FC911197D7
:1004DA00CF0102968D939C93808120C0B0E85B1275
:1004EA003AC0F60180819181019680839183D70178
:1004FA00ED91FC911197CF0102968D939C934081C7
:10050A00518120E030E01EC0B0E85B1224C0F60141
:10051A00208131812F5F3F4F208331838B870DC02C
:10052A0085E28B87D6016D927C9219821A821D828E
:10053A001E828FEF9FEF8B839C8321E030E0AE0118
:10054A00455F5F4FBE016F5F7F4FC4010E948B09F9
:10055A008A0D9B1D07C0F6018081918101968083D7
:0C056A009183C5012E96EFE00C94F10A7D
:10057600AFE0B0E0E1ECF2E00C94A50A1C016B01DF
:1005860049835A832B83FB018281938184809580E2
:1005960000811181A680B78097FD02C00D7F02C041
:1005A60081E090E0E981FA81408051806280738029
:1005B6009801207133272C833D83740104FF08C002
:1005C600411451046104710419F032E0E31AF10890
:1005D600F801E870FF27EE83FF8303FF03C0F1E015
:1005E600EF1AF108F6010084F185E02D3197EE87C8
:1005F600FF87EA0DFB1D10829C012E193F092887F3
:100606003987C801827099278A879B87EB818E2F4D
:10061600EE0F990B9C01215431092C873D872E85BD
:100626003F852230310530F48C819D81892B09F07C
:1006360042C05CC0411451046104710461F18E85AD
:100646009F8501978E879F87C2018F7099278A3071
:10065600910514F4C09602C0895A9F4FEC85FD851A
:100666007A9748F49C012062215631092A313105D6
:1006760010F40E94A70BEE85FF85EA0DFB1D808313
:10068600F1E0EF1AF10884E0769467945794479462
:100696008A95D1F7C4CF888599858E0D9F1D18162A
:1006A60019066CF21E141F040CF0BECFEA85FB85FA
:1006B600EF2B29F6B9CFE981FA8180819181A28158
:1006C600B381892B8A2B8B2B89F0EE85FF85EA0D6A
:1006D600FB1D31972B8120838E859F8502978E8700
:1006E6009F87FC01EA0DFB1D80E38083EE81FF817D
:1006F600EF2B59F02E853F85215031092E873F87F4
:10070600F901EA0DFB1D80E28083F60140855185E3
:10071600415051092E853F85421B530BB9016A0D85
:100726007B1D9401C1010E94B7079C01F1018081E4
:10073600918190FF06C0F60182819381821793070B
:0C0746000CF4C9012F96E2E10C94EE0ABD
:10075200CF93DF9380E094E0FC011482C0E4D4E004
:100762001C82A0E6B4E020E414962C93149740EA8D
:1007720054E0FA011482FC01108218822C9324E0C6
:10078200FA012083FC01108A118A128A138A148AC0
:10079200158A168A178A188A198A1A8A1B8A1C8A43
:1007A2001D8A1E8A1F8A50961C92509751961C923F
:1007B200519752961C92529753961C925397549665
:1007C2001C92549755961C92559756961C92569782
:1007D20057961C92FA01108A118A80E8828B138A3A
:1007E200148A158A168A178AE0EEF5E011821082C1
:1007F200158217821086168280E1828385ED9BE046
:1008020080932F619093306186ED9BE080932D6100
:1008120090932E6187ED9BE080932B6190932C61E6
:1008220088ED9BE08093296190932A6189ED9BE09A
:0E0832008093276190932861DF91CF91089504
:10084000A2E0B0E0E6E2F4E00C94A50A3C016B0102
:10085000FB0122813381A480B580808191818983CD
:100860009A8386809780FA0120803180428053806D
:10087000B201A10157FE07C044275527BA0142190A
:1008800053096409750937FD03C08D7F89839A83F5
:10089000950157FC05C0898182FD02C083FF02C01B
:1008A00021503109CE0101967C010AE010E0C60119
:1008B0000E94FA0457FC03C0298122FF0AC0019755
:1008C000F401E80FF91F57FC02C02BE209C02DE22A
:1008D00007C023FF06C00197F401E80FF91F20E2CB
:1008E000208309811A81F6014085518541505109C3
:1008F000481B590BB401680F791F9501C3010E9471
:10090000B7079C01F3018081918190FF06C0F60139
:1009100082819381821793070CF4C9012296E2E148
:040920000C94EE0A3B
:10092400CF93DF93DC01F90168387105F1F05CF4D1
:100934006138710561F164387105A1F160387105A0
:1009440009F051C02FC0603C710509F441C0603FFB
:100954007105F1F1603A710509F045C0C081D1819A
:10096400CE0102968083918325C0C081D181CE01BE
:10097400029680839183452B39F04881042E000C24
:10098400550B660B770B1CC0488150E029C0C08111
:10099400D181CE01049680839183488159816A81F3
:1009A4007B810EC0C081D181CE0102968083918368
:1009B400452BA1F048815981052E000C660B770B5D
:1009C4004D935D936D937C93139781E090E00DC0FC
:1009D400C081D181CE01029680839183488159815F
:1009E40060E070E0EDCF80E090E0DF91CF9108957A
:1009F400A0E0B0E0E0E0F5E00C94A70ADC012801F7
:100A04001696AD90BC901797F7018081918112964C
:100A1400ED91FC9113971896CD91DC91199721973C
:100A2400F7FF02C0E1E0F0E0CA0DDB1D18826901A6
:100A3400A1E0B0E08F01021B130B4C01F2E08F2206
:100A44009924052C000C66087708CE018A199B09A5
:100A5400CA15DB0519F1411551056105710589F0C8
:100A6400CB01BA01A30192010E94460ACA01A62F32
:100A7400B72F605D6A9341E0C41AD108A901BC0193
:100A8400E4CF98012C0D3D1D121613064CF31C14D3
:100A94001D0434F48114910419F702C080E090E03D
:100AA400AB2B31F4F701208131812F7E20833183F8
:0A0AB400CDB7DEB7E0E10C94F00AC4
:100ABE00E0913F61F0E0EE0FFF1FEE57FF4910820D
:100ACE0011828091010882FF11C0E0913F61F0E038
:100ADE00EE0FFF1FEE57FF49808182608083E09109
:100AEE002361F0912461309709F0099580910108F6
:100AFE0081FF0CC0E5E2F1E6808181608083E091A8
:100B0E001F61F0912061309709F0099580910108DD
:100B1E0086FF11C0E0913F61F0E0EE0FFF1FEE5730
:100B2E00FF49808184608083E0912161F091226190
:100B3E00309709F009952091000880913F618F5FF1
:100B4E008F7190913E61891769F0E0913F61F0E0FD
:100B5E00EE53FF49208380933F6180913D618F5F0B
:100B6E0080933D61E0911B61F0911C61309709F01B
:040B7E000995089538
:100B8200A2E0B0E0E7ECF5E00C94A90A4C016B019D
:100B9200FB01228133816480758080819181898308
:100BA2009A83A680B78037FD03C08D7F89839A839D
:100BB200FA014081518162817381CE0101967C01EB
:100BC20008E010E09301C6010E94FA04298124FF83
:100BD20006C00197F501E80FF91F20E32083298160
:100BE20023FF06C00197F501E80FF91F20E22083D9
:100BF20009811A81F6014085518541505109481BEE
:100C0200590BB501680F791F9301C4010E94B70700
:100C12009C01F4018081918190FF06C0F6018281DE
:100C22009381821793070CF4C9012296EEE00C948B
:020C3200F20AC4
:100C34000F931F93CF93DF93DB01109719F48FEF7A
:100C44009FEF3DC02D913C91119730FF25C0169622
:100C54004D915C91179714962D913C9115974217DD
:100C6400530778F41296ED91FC91139780831296B2
:100C74002D913C9113972F5F3F4F12962D933C93E8
:100C8400139716962D913C9117972F5F3F4F169609
:100C94002D933C93179713C01C96ED91FC911D97CF
:100CA400309769F2EB01092F182F0995892B39F632
:100CB4008E819F8101968E839F83812F902FDF9158
:080CC400CF911F910F910895DB
:100CCC0040E068ED80E690E00E94C80B40E068EDE3
:100CDC0081E690E00E94C80B40E068ED88E790E068
:100CEC000E94C80B4CE068ED88E690E00E94C80BAF
:100CFC0040E068ED89E690E00E94C80B40E068EDAA
:100D0C008CE790E00E94C80B40E068ED82E690E032
:100D1C000E94C80B40E068ED83E690E00E94C80B8F
:100D2C0040E068ED84E690E00E94C80B40E068ED7E
:100D3C0080E890E00E94C80B44E068ED86E690E005
:100D4C000E94C80BE0E6F0E0858181FFFDCF08959D
:100D5C00A2E0B0E0E4EBF6E00C94A90A5C016B01B4
:100D6C00FB012281338184809580808191818983EC
:100D7C009A836680778037FD03C08D7F89839A8341
:100D8C00FA014081518162817381CE0101967C010F
:100D9C000AE010E09401C6010E94FA0409811A814C
:100DAC00F6014085518541505109481B590BB3013F
:100DBC00680F791F9401C5010E94B7079C01F501CA
:100DCC008081918190FF06C0F60182819381821708
:0E0DDC0093070CF4C9012296EEE00C94F20A83
:100DEA00CF93DF93EC018B81811122C068818091BE
:100DFA0043610E94220A89838823A9F188811F926C
:100E0A008F9381E291E89F938F930E94BE0A898112
:100E1A001F928F9388E391E89F938F930E94BE0A53
:100E2A0081E08B838DB79EB708968DBF9EBF1BC08E
:100E3A006881809142610E9453086330710581057F
:100E4A00910588F48B81882371F088811F928F9392
:100E5A008FE491E89F938F930E94BE0A1B820F90A2
:0C0E6A000F900F900F90DF91CF91089532
:100E76001F920F920FB60F9211242F933F934F9309
:100E86005F936F937F938F939F93AF93BF93EF93EC
:100E9600FF937F9B05C0E0912F61F091306109952A
:100EA6007E9B05C0E0912D61F0912E610995799B9D
:100EB60005C0E0912B61F0912C6109957A9B05C0E4
:100EC600E0912961F0912A6109958FEF8FB9FF9121
:100ED600EF91BF91AF919F918F917F916F915F91AC
:100EE6004F913F912F910F900FBE0F901F90189525
:100EF600A2E8B0E0E1E8F7E00C94AB0A5C014A0135
:100F0600CF57DF4F68837983C158D040C12CD12C8D
:100F1600CF57DF4FE881F981C158D04080818823BF
:100F2600E9F07401860120E830E0AE014F5F5F4FC3
:100F3600BE016F577F4FC5010E94BD008C0D9D1DE0
:100F46008C159D054CF48FE490E08093006090939F
:100F560001608FEF9FEF03C06C01DACFC601CE5759
:080F6600DF4FECE00C94F40AEB
:100F6E00A0E0B0E0EDEBF7E00C94AB0A6C015B0196
:100F7E007A01E901480181E08822992400FD03C02D
:100F8E004217530750F0A701B501C6010E94880A07
:100F9E00EC16FD0610F0C70117C08E010E191F09C1
:100FAE000115110541F0B60180E290E00E941A068B
:100FBE0001501109F5CF8114910429F4A701B5014F
:100FCE00C6010E94880ACE01CDB7DEB7ECE00C94C4
:020FDE00F40A13
:100FE0000F931F93CF93DF938C010F5F1F4FFC0173
:100FF00080816115710519F48FEF9FEF1EC0FB0111
:1010000024853585232BC1F3EB01EC85FD85BE01DD
:10101000882339F00995892B79F7F80181918F019F
:10102000F4CF8AE0099521E030E0892B11F420E02B
:1010300030E088279927821B930BDF91CF911F9176
:041040000F9108956F
:101044001F920F920FB60F9211242F933F934F9339
:101054005F936F937F938F939F93AF93BF93EF931C
:10106400FF93E0E0F6E080E2878380E1878388E015
:101074008783E0911561F0911661309709F0099525
:10108400FF91EF91BF91AF919F918F917F916F915C
:101094005F914F913F912F910F900FBE0F901F9032
:0210A40018959D
:1010A600CF92DF92EF92FF921F93CF93DF93D82FC9
:1010B600162F882379F0C0E0C12CD12C7601812F20
:1010C6000E943C0BC60ED71EE81EF91ECF5FDC132E
:1010D600F6CF03C0C12CD12C76012D2F30E040E095
:1010E60050E0C701B6010E94460ACA01B901DF9164
:0E10F600CF911F91FF90EF90DF90CF90089563
:10110400E0E2F8E08BE890E080879187158280EC3C
:10111400868383E0878313861486168615868AED74
:101124009BE080933561909336618BED9BE08093D7
:101134003361909334618CED9BE0809331619093A3
:1011440032611092376110923861E0913961F09107
:0C1154003A6188EF90E680839183089553
:10116000DC01ED91FC91119780818A3221F080E0C1
:1011700090E03AE00EC03196ED93FC93DB01ED91E7
:10118000FC911197CF0102968D939C938081918160
:101190000895ED91FC911197208120532A3068F435
:1011A000389FA001399F500D1124CA01820F911D53
:0C11B0003196ED93FC931197ECCF08955D
:1011BC001F920F920FB60F9211242F933F934F93C0
:1011CC005F936F937F938F939F93AF93BF93EF93A3
:1011DC00FF9382E080930706E0911961F0911A6108
:1011EC00309709F00995FF91EF91BF91AF919F91C5
:1011FC008F917F916F915F914F913F912F910F90B4
:08120C000FBE0F901F90189512
:101214001F920F920FB60F9211242F933F934F9367
:101224005F936F937F938F939F93AF93BF93EF934A
:10123400FF9381E080930706E0911761F0911861B4
:10124400309709F00995FF91EF91BF91AF919F916C
:101254008F917F916F915F914F913F912F910F905B
:081264000FBE0F901F901895BA
:10126C001F920F920FB60F9211242F933F934F930F
:10127C005F936F937F938F939F93AF93BF93EF93F2
:10128C00FF93BA9B05C0E0912761F0912861099505
:10129C008FEF87BBFF91EF91BF91AF919F918F9192
:1012AC007F916F915F914F913F912F910F900FBE56
:0612BC000F901F90189531
:1012C200CF93DF93CDB7DEB72897CDBFDEBF0E94A5
:1012D200590B87E691E80E949E0B81E089831A826E
:1012E2008CE38B831C8282E08D831E828DE38F834D
:1012F2001886CE0105960E94F5068AE090E00E94CB
:101302007F0BCE0101960E94F5068AE090E00E94D2
:041312007F0BEFCF8F
:10131600A0E0B0E0E1E9F9E00C94AD0A7C01FB0144
:10132600EA01C901A280B380C480D5800081118101
:10133600209711F4C8E0D1E6009719F4CE010E9477
:101346004B0BB7FC04C0A816B90608F4C5019601F4
:10135600AC01BE01C7010E94B707CDB7DEB7EAE010
:041366000C94F60AE3
:10136A00809140618823A4F0E0914161F0E0EE5F52
:10137A00FF49808180930208809141618F5F8F7756
:10138A0080934161809140618F5F8093406105C085
:10139A00E0E0F8E085818F7D8583E0911D61F09121
:0A13AA001E61309709F009950895BF
:1013B4001F920F920FB60F9211242F933F934F93C6
:1013C4005F936F937F938F939F93AF93BF93EF93A9
:1013D400FF930E945F05FF91EF91BF91AF919F91A1
:1013E4008F917F916F915F914F913F912F910F90CA
:0813F4000FBE0F901F90189529
:1013FC001F920F920FB60F9211242F933F934F937E
:10140C005F936F937F938F939F93AF93BF93EF9360
:10141C00FF930E94B509FF91EF91BF91AF919F91FE
:10142C008F917F916F915F914F913F912F910F9081
:08143C000FBE0F901F901895E0
:101444000F931F93CF93DF93082F162F10920B0641
:10145400862F0E943C0B6B3070F0002371F0C0E0CB
:10146400D0E0D61708F4D62F812F0E943C0BCF5F13
:101474000C13F7CF03C0D0E001C0D0E08D2FDF9173
:08148400CF911F910F91089513
:10148C00A1E21A2EAA1BBB1BFD010DC0AA1FBB1F7C
:10149C00EE1FFF1FA217B307E407F50720F0A21BEE
:1014AC00B30BE40BF50B661F771F881F991F1A945B
:1014BC0069F760957095809590959B01AC01BD0185
:0414CC00CF010895AF
:1014D000CF93DF93EC0190E0E92FF0E0EE0FFF1FD8
:1014E000EE51FF498081811102C081810EC0A88127
:1014F000B9812C91821305C091811196A883B9837B
:1015000001C09F5F9B3040F3892FDF91CF910895F9
:10151000A0E0B0E0EEE8FAE00C94AF0A6C01EB0159
:101520008A017B01E40EF51ECE15DF0541F089919D
:10153000B601082E000C990B0E941A06F5CFC801BF
:0A154000CDB7DEB7E8E00C94F80A1E
:10154A002F923F924F925F926F927F928F929F92C9
:10155A00AF92BF92CF92DF92EF92FF920F931F93B7
:10156A00CF93DF93CDB7DEB7CA1BDB0BCDBFDEBF90
:02157A000994D2
:10157C00A0E0B0E0E4ECFAE00C94B50AAE014B5FED
:10158C005F4FFA0161917191AF01E0913961F09176
:10159C003A61808191810E94D60AE2E00C94FE0AA5
:1015AC00A2E0B0E0ECEDFAE00C94B30A8C014983B4
:1015BC005A83AE014F5F5F4F0E947B07F801208179
:1015CC0024FF02C08FEF9FEF2296E4E00C94FC0AFC
:1015DC002A88398848885F846E847D848C849B84B7
:1015EC00AA84B984C884DF80EE80FD800C811B81C5
:1015FC00AA81B981CE0FD11DCDBFDEBFED010895FB
:10160C00E0E0F6E084E0818380E28583128213823D
:10161C001482118681E0828716821386128A138ABD
:0A162C00108A118A808380E008957F
:10163600E0E0FBE084E090E08487958712861386DD
:1016460011821086148215821682118681E08083AB
:021656000895F5
:101658008F938FB78F93EF93FF93E0E0F8E0848147
:1016680080648483FF91EF918F918FBF8F9118953C
:101678000E94950B0E94CD0B8823E1F3E0E0F6E091
:0E1688006485758581E0878380E090E0089599
:10169600FC01AF014F5F5F4F2081222311F0FA0159
:0C16A600F8CF9F01281B390BC9010895E3
:1016B2000E9466060E94A9030E94060B0E941B0B51
:0A16C2000E9482080E94660B089542
:1016CC0040E068ED80E191E00E94C80BE0E1F1E0C0
:0A16DC0012821382789480E00895D2
:1016E600CF93C82F0E94B80B8823E1F3C09322083A
:0816F60080E090E0CF9108951F
:1016FE00009741F0E7EEF3E03197F1F700C00000FC
:06170E000197C1F70895E8
:10171400EC010E94DE0B0E94DD0BCE010E94DF0B68
:06172400CE010E94D30B70
:10172A00E0E0F6E09385892B838782858160828752
:02173A00089510
:10173C00E0913961F0913A61608171810E94F0070A
:02174C000895FE
:10174E009C01215631092A31310510F48F759927E4
:02175E000895EC
:101760009C01215431092A31310508F48062089521
:0C1770008091240885FB882780F90895EB
:0A177C008F938FEF83B98F911895BA
:0A1786008F938FEF8BB98F911895A8
:0A1790001BBEFC0164BF40830895F6
:08179A0080910706817008959B
:0417A2000C940000A3
:0417A6000E948B0012
:0217AA000895A0
:0217AC0008959E
:0217AE0008959C
:0217B00008959A
:0217B200089598
:0217B400089596
:0217B600089594
:0217B800089592
:0217BA00089590
:0217BC0008958E
:0217BE0008958C
:1017C00068076C094C836A9074A07AC000806888AE
:0617D00000846C82008120
:1017D600030000000000000000000000730B000082
:0717E600286E756C6C2900F0
:0617ED00286E696C290062
:0217F3003B6158
:0117F500E80B
:02000004008278
:0C0000000000000000D008000000030019
:00000001FF
