:100000000C9453000C94AC0A0C94AC0A0C94AC0AFB
:100010000C94AC0A0C94AC0A0C94AC0A0C94AC0A88
:100020000C94AC0A0C94960A0C94AC0A0C94AC0A8E
:100030000C94AC0A0C94AC0A0C94AC0A0C94AC0A68
:100040000C94AC0A0C94AC0A0C94AC0A0C94F7080F
:100050000C941B090C94240A0C94FD060C949B0A26
:100060000C9454080C94AC0A0C94AC0A0C94AC0A92
:100070000C94AC0A0C94AC0A0C94AC0A0C946F0768
:100080000C9428080C94FC07600060E28060E26138
:10009000150015746115613780613761390015A746
:1000A000613961408000809101108F7C80608068A0
:1000B00098ED94BF8093011011241FBECFEFCDBFE8
:1000C000DFE7DEBFE8E8F0E040E017C0B591A591BA
:1000D00035912591059107FD0CC095918591EF0112
:1000E000F92FE82F05900D92A217B307D9F7FE015B
:1000F00004C01D92A217B307E1F7E53AF40731F700
:0C0100000E94A90A0C946B0AF894FFCF2F
:10010C0041444320526573756C743A2025640A0D82
:01011C0000E2
:10011E00AEE0B0E0E5E9F0E00C94A1094C016B0112
:10012E0019821A828FEF9FEF8B839C831D821E8212
:10013E004F83588729873A87A12CB12CD6016D9011
:10014E007C90F301EA0DFB1D808181110FC0D60159
:10015E00ED93FC938081853209F0D3C13F01BFEF4F
:10016E006B1A7B0AF6016082718219C0853279F3AF
:10017E00B401082E000C990B0E94E6054FEFA41A4D
:10018E00B40ADCCF8C32ACF08D32F9F489819A81CD
:10019E00816089839A833196D601ED93FC93D601C3
:1001AE00ED91FC9180818B3269F789819A8184600F
:1001BE00F0CF803221F489819A818860EACF833230
:1001CE0051F489819A818061E4CF803321F4898151
:1001DE009A818260DECFB701C6010E94CE078D8361
:1001EE009E8397FF0BC029813A81B1E02B2729838B
:1001FE003A839195819591098D839E8389819A8108
:10020E0080FF03C08D7F89839A83D601ED91FC9187
:10021E00119780818E3249F43196ED93FC93B7019C
:10022E00C6010E94CE078B839C83C6010E94610982
:10023E00582ED601ED91FC918081082E000C990B61
:10024E000E94880A893609F443C084F4833609F47F
:10025E0002C134F4853209F427C18136E1F030C190
:10026E008436B1F188360CF4D9C02AC1803709F42E
:10027E009AC03CF48E3609F4BCC08F3609F461C0C6
:10028E001FC1853709F440C0883709F476C083371B
:10029E0009F016C1F3C0652D70E0A701CE010B96D3
:1002AE000E940000892B09F426C1D601ED91FC9124
:1002BE001197CF0101968D939C932081AE01455FDE
:1002CE005F4FBE016F5F7F4FC4010E94000010C1DF
:1002DE00652D70E0970141E050E0CE010B960E9433
:1002EE005E04892B09F407C1F60180819181019684
:1002FE0080839183AE01455F5F4FBE016F5F7F4F7D
:10030E00C4010E947B03F4C0652D70E0970140E0AC
:10031E0050E0CE010B960E945E04892B09F4EBC0CF
:10032E00D6018D919C91119701968D939C93AE0160
:10033E00455F5F4FBE016F5F7F4FC4010E947A061B
:10034E00D7C0652D70E0970140E050E0CE010B96CE
:10035E000E945E04892B09F4CEC0F6018081918142
:10036E00019680839183AE01455F5F4FBE016F5F43
:10037E007F4FC4010E948D05BBC0652D70E09701B3
:10038E0040E050E0CE010B960E945E04892B09F4EA
:10039E00B2C0D601ED91FC911197CF0101968D93CC
:1003AE009C9320811CC0970140E050E060EF70E00C
:1003BE00CE010B960E945E04892B09F49CC0F601B7
:1003CE00808191810196808391838B859C85892B79
:1003DE0029F420E030E04FE051E684C028E7AE017A
:1003EE00455F5F4FBE016F5F7F4FC4010E948D025C
:1003FE007FC0A501400F511F652D70E09701CE0102
:10040E000B960E940000892B09F475C0D6018D91C0
:10041E009C91119701968D939C9373C0652D70E0FE
:10042E00A701CE010B960E940000892B09F463C030
:10043E00D601ED91FC911197CF0101968D939C936E
:10044E002081AE01455F5F4FBE016F5F7F4FC401DC
:10045E000E9400004DC0B0E85B124DC0F6018081D5
:10046E009181019680839183D701ED91FC91119733
:10047E00CF0102968D939C93808120C0B0E85B12D1
:10048E003AC0F60180819181019680839183D701D4
:10049E00ED91FC911197CF0102968D939C93408123
:1004AE00518120E030E01EC0B0E85B1224C0F6019E
:1004BE00208131812F5F3F4F208331838B870DC089
:1004CE0085E28B87D6016D927C9219821A821D82EB
:1004DE001E828FEF9FEF8B839C8321E030E0AE0175
:1004EE00455F5F4FBE016F5F7F4FC4010E947F0863
:1004FE008A0D9B1D07C0F601808191810196808334
:0C050E009183C5012E96EFE00C94EA09E1
:10051A00AFE0B0E0E3E9F2E00C949E091C016B0144
:10052A0049835A832B83FB0182819381848095803E
:10053A0000811181A680B78097FD02C00D7F02C09D
:10054A0081E090E0E981FA81408051806280738085
:10055A009801207133272C833D83740104FF08C05E
:10056A00411451046104710419F032E0E31AF108EC
:10057A00F801E870FF27EE83FF8303FF03C0F1E071
:10058A00EF1AF108F6010084F185E02D3197EE8724
:10059A00FF87EA0DFB1D10829C012E193F0928874F
:1005AA003987C801827099278A879B87EB818E2FAA
:1005BA00EE0F990B9C01215431092C873D872E851A
:1005CA003F852230310530F48C819D81892B09F0D9
:1005DA0042C05CC0411451046104710461F18E850A
:1005EA009F8501978E879F87C2018F7099278A30CE
:1005FA00910514F4C09602C0895A9F4FEC85FD8577
:10060A007A9748F49C012062215631092A31310532
:10061A0010F40E947F0AEE85FF85EA0DFB1D808398
:10062A00F1E0EF1AF10884E07694679457944794BE
:10063A008A95D1F7C4CF888599858E0D9F1D181686
:10064A0019066CF21E141F040CF0BECFEA85FB8556
:10065A00EF2B29F6B9CFE981FA8180819181A281B4
:10066A00B381892B8A2B8B2B89F0EE85FF85EA0DC6
:10067A00FB1D31972B8120838E859F8502978E875C
:10068A009F87FC01EA0DFB1D80E38083EE81FF81D9
:10069A00EF2B59F02E853F85215031092E873F8750
:1006AA00F901EA0DFB1D80E28083F6014085518540
:1006BA00415051092E853F85421B530BB9016A0DE2
:1006CA007B1D9401C1010E9436079C01F1018081C2
:1006DA00918190FF06C0F601828193818217930768
:0C06EA000CF4C9012F96E2E10C94E70922
:1006F600A2E0B0E0E1E8F3E00C949E093C016B0156
:10070600FB0122813381A480B58080819181898318
:100716009A8386809780FA012080318042805380B8
:10072600B201A10157FE07C044275527BA01421955
:1007360053096409750937FD03C08D7F89839A8340
:10074600950157FC05C0898182FD02C083FF02C066
:1007560021503109CE0101967C010AE010E0C60164
:100766000E94C60457FC03C0298122FF0AC00197D4
:10077600F401E80FF91F57FC02C02BE209C02DE275
:1007860007C023FF06C00197F401E80FF91F20E216
:10079600208309811A81F60140855185415051090E
:1007A600481B590BB401680F791F9501C3010E94BC
:1007B60036079C01F3018081918190FF06C0F60106
:1007C60082819381821793070CF4C9012296E2E194
:0407D6000C94E7098F
:1007DA00CF93DF9380E094E0FC011482C0E4D4E07C
:1007EA001C82A0E6B4E020E414962C93149740EA05
:1007FA0054E0FA011482FC01108218822C9324E03E
:10080A00FA012083FC01108A118A128A138A148A37
:10081A00158A168A178A188A198A1A8A1B8A1C8ABA
:10082A001D8A1E8A1F8A50961C92509751961C92B6
:10083A00519752961C92529753961C9253975496DC
:10084A001C92549755961C92559756961C925697F9
:10085A0057961C92FA01108A118A80E8828B138AB1
:10086A00148A158A168A178AE0EEF5E01182108238
:10087A00158217821086168280E1828380EB9AE0C5
:10088A00809327619093286181EB9AE08093256198
:10089A009093266182EB9AE080932361909324617E
:1008AA0083EB9AE08093216190932261DF91CF914B
:0208BA0008959F
:1008BC00CF93DF93DC01F90168387105F1F05CF43A
:1008CC006138710561F164387105A1F16038710509
:1008DC0009F051C02FC0603C710509F441C0603F64
:1008EC007105F1F1603A710509F045C0C081D18103
:1008FC00CE0102968083918325C0C081D181CE0127
:10090C00029680839183452B39F04881042E000C8C
:10091C00550B660B770B1CC0488150E029C0C08179
:10092C00D181CE01049680839183488159816A815B
:10093C007B810EC0C081D181CE01029680839183D0
:10094C00452BA1F048815981052E000C660B770BC5
:10095C004D935D936D937C93139781E090E00DC064
:10096C00C081D181CE0102968083918348815981C7
:10097C0060E070E0EDCF80E090E0DF91CF910895E2
:10098C00A0E0B0E0ECECF4E00C94A009DC01280150
:10099C001696AD90BC901797F701808191811296B5
:1009AC00ED91FC9113971896CD91DC9119972197A5
:1009BC00F7FF02C0E1E0F0E0CA0DDB1D188269010F
:1009CC00A1E0B0E08F01021B130B4C01F2E08F226F
:1009DC009924052C000C66087708CE018A199B090E
:1009EC00CA15DB0519F1411551056105710589F031
:1009FC00CB01BA01A30192010E943F09CA01A62FA3
:100A0C00B72F605D6A9341E0C41AD108A901BC01FB
:100A1C00E4CF98012C0D3D1D121613064CF31C143B
:100A2C001D0434F48114910419F702C080E090E0A5
:100A3C00AB2B31F4F701208131812F7E2083318360
:0A0A4C00CDB7DEB7E0E10C94E90934
:100A5600E0913D61F0E0EE0FFF1FEE57FF49108277
:100A660011828091010882FF11C0E0913D61F0E0A2
:100A7600EE0FFF1FEE57FF49808182608083E09171
:100A86001D61F0911E61309709F00995809101086A
:100A960081FF0CC0EFE1F1E6808181608083E09107
:100AA6001961F0911A61309709F009958091010852
:100AB60086FF11C0E0913D61F0E0EE0FFF1FEE579B
:100AC600FF49808184608083E0911B61F0911C6105
:100AD600309709F009952091000880913D618F5F5C
:100AE6008F7190913C61891769F0E0913D61F0E06A
:100AF600EE53FF49208380933D6180913B618F5F78
:100B060080933B61E0911561F0911661309709F091
:040B160009950895A0
:100B1A00A2E0B0E0E3E9F5E00C94A2094C016B0114
:100B2A00FB01228133816480758080819181898370
:100B3A009A83A680B78037FD03C08D7F89839A8305
:100B4A00FA014081518162817381CE0101967C0153
:100B5A0008E010E09301C6010E94C604298124FF1F
:100B6A0006C00197F501E80FF91F20E320832981C8
:100B7A0023FF06C00197F501E80FF91F20E2208341
:100B8A0009811A81F6014085518541505109481B56
:100B9A00590BB501680F791F9301C4010E943607EA
:100BAA009C01F4018081918190FF06C0F601828147
:100BBA009381821793070CF4C9012296EEE00C94F4
:020BCA00EB0935
:100BCC000F931F93CF93DF93DB01109719F48FEFE3
:100BDC009FEF3DC02D913C91119730FF25C016968B
:100BEC004D915C91179714962D913C911597421746
:100BFC00530778F41296ED91FC911397808312961B
:100C0C002D913C9113972F5F3F4F12962D933C9350
:100C1C00139716962D913C9117972F5F3F4F169671
:100C2C002D933C93179713C01C96ED91FC911D9737
:100C3C00309769F2EB01092F182F0995892B39F69A
:100C4C008E819F8101968E839F83812F902FDF91C0
:080C5C00CF911F910F91089543
:100C640040E068ED80E690E00E94A00A40E068ED74
:100C740081E690E00E94A00A40E068ED88E790E0F9
:100C84000E94A00A4CE068ED88E690E00E94A00A69
:100C940040E068ED89E690E00E94A00A40E068ED3B
:100CA4008CE790E00E94A00A40E068ED82E690E0C4
:100CB4000E94A00A40E068ED83E690E00E94A00A4A
:100CC40040E068ED84E690E00E94A00A40E068ED10
:100CD40080E890E00E94A00A44E068ED86E690E097
:100CE4000E94A00AE0E6F0E0858181FFFDCF08952F
:100CF400A2E0B0E0E0E8F6E00C94A2095C016B012C
:100D0400FB01228133818480958080819181898354
:100D14009A836680778037FD03C08D7F89839A83A9
:100D2400FA014081518162817381CE0101967C0177
:100D34000AE010E09401C6010E94C60409811A81E8
:100D4400F6014085518541505109481B590BB301A7
:100D5400680F791F9401C5010E9436079C01F501B3
:100D64008081918190FF06C0F60182819381821770
:0E0D740093070CF4C9012296EEE00C94EB09F3
:100D8200A2E8B0E0E7ECF6E00C94A4095C014A01A9
:100D9200CF57DF4F68837983C158D040C12CD12C03
:100DA200CF57DF4FE881F981C158D0408081882335
:100DB200E9F07401860120E830E0AE014F5F5F4F39
:100DC200BE016F577F4FC5010E948F008C0D9D1D84
:100DD2008C159D054CF48FE490E080930060909315
:100DE20001608FEF9FEF03C06C01DACFC601CE57CF
:080DF200DF4FECE00C94ED0969
:100DFA001F920F920FB60F9211242F933F934F9386
:100E0A005F936F937F938F939F93AF93BF93EF9368
:100E1A00FF937F9B05C0E0912761F09128610995B6
:100E2A007E9B05C0E0912561F09126610995789B2A
:100E3A0005C0E0912361F091246109958FEF8FB984
:100E4A00FF91EF91BF91AF919F918F917F916F9198
:100E5A005F914F913F912F910F900FBE0F901F906E
:020E6A001895D9
:100E6C00A0E0B0E0ECE3F7E00C94A4096C015B01AA
:100E7C007A01E901480181E08822992400FD03C030
:100E8C004217530750F0A701B501C6010E94810912
:100E9C00EC16FD0610F0C70117C08E010E191F09C4
:100EAC000115110541F0B60180E290E00E94E605C3
:100EBC0001501109F5CF8114910429F4A701B50152
:100ECC00C6010E948109CE01CDB7DEB7ECE00C94CF
:020EDC00ED091E
:100EDE001F920F920FB60F9211242F933F934F93A1
:100EEE005F936F937F938F939F93AF93BF93EF9384
:100EFE00FF93E0E0F6E080E2878380E1878388E07D
:100F0E008783E0913161F0913261309709F0099554
:100F1E00FF91EF91BF91AF919F918F917F916F91C3
:100F2E005F914F913F912F910F900FBE0F901F9099
:020F3E00189504
:100F4000E0E2F8E08BE890E080879187158280EC02
:100F5000868383E08783138614861686158684EB42
:100F60009AE080932D6190932E6185EB9AE08093B7
:100F70002B6190932C6186EB9AE08093296190938A
:100F80002A6110922F6110923061E0913761F091E7
:0C0F9000386188EF90E68083918308951B
:100F9C00DC01ED91FC91119780818A3221F080E087
:100FAC0090E03AE00EC03196ED93FC93DB01ED91AD
:100FBC00FC911197CF0102968D939C938081918126
:100FCC000895ED91FC911197208120532A3068F4FB
:100FDC00389FA001399F500D1124CA01820F911D19
:0C0FEC003196ED93FC931197ECCF089523
:100FF8001F920F920FB60F9211242F933F934F9386
:101008005F936F937F938F939F93AF93BF93EF9368
:10101800FF9382E080930706E0913561F091366195
:10102800309709F00995FF91EF91BF91AF919F918A
:101038008F917F916F915F914F913F912F910F9079
:081048000FBE0F901F901895D8
:101050001F920F920FB60F9211242F933F934F932D
:101060005F936F937F938F939F93AF93BF93EF9310
:10107000FF9381E080930706E0913361F091346142
:10108000309709F00995FF91EF91BF91AF919F9132
:101090008F917F916F915F914F913F912F910F9021
:0810A0000FBE0F901F90189580
:1010A8001F920F920FB60F9211242F933F934F93D5
:1010B8005F936F937F938F939F93AF93BF93EF93B8
:1010C800FF93BA9B05C0E0912161F09122610995D7
:1010D8008FEF87BBFF91EF91BF91AF919F918F9158
:1010E8007F916F915F914F913F912F910F900FBE1C
:0610F8000F901F901895F7
:1010FE00A0E0B0E0E5E8F8E00C94A6097C01FB0165
:10110E00EA01C901A280B380C480D580008111811B
:10111E00209711F4C8E0D1E6009719F4CE010E9491
:10112E00440AB7FC04C0A816B90608F4C501960116
:10113E00AC01BE01C7010E943607CDB7DEB7EAE0AB
:04114E000C94EF0905
:10115200CF92DF92EF92FF920E94760A0E94A50A36
:101162008823E1F3E0E0F6E0C484D584E12CF12C9D
:1011720081E087831F921F92DF92CF928CE091E8E9
:101182009F938F930E94B7090F900F900F900F902B
:101192000F900F90C701B601FF90EF90DF90CF90B4
:0211A2000895AE
:1011A40080913E618823A4F0E0913F61F0E0EE5F1E
:1011B400FF4980818093020880913F618F5F8F7720
:1011C40080933F6180913E618F5F80933E6105C053
:1011D400E0E0F8E085818F7D8583E0911761F091EF
:0A11E4001861309709F0099508958D
:1011EE001F920F920FB60F9211242F933F934F938E
:1011FE005F936F937F938F939F93AF93BF93EF9371
:10120E00FF930E942B05FF91EF91BF91AF919F919C
:10121E008F917F916F915F914F913F912F910F9091
:08122E000FBE0F901F901895F0
:101236001F920F920FB60F9211242F933F934F9345
:101246005F936F937F938F939F93AF93BF93EF9328
:10125600FF930E94D208FF91EF91BF91AF919F91AA
:101266008F917F916F915F914F913F912F910F9049
:081276000FBE0F901F901895A8
:10127E00A1E21A2EAA1BBB1BFD010DC0AA1FBB1F8C
:10128E00EE1FFF1FA217B307E407F50720F0A21BFE
:10129E00B30BE40BF50B661F771F881F991F1A946B
:1012AE0069F760957095809590959B01AC01BD0195
:0412BE00CF010895BF
:1012C200CF93DF93EC0190E0E92FF0E0EE0FFF1FE8
:1012D200EE51FF498081811102C081810EC0A88137
:1012E200B9812C91821305C091811196A883B9838B
:1012F20001C09F5F9B3040F3892FDF91CF9108950A
:10130200A0E0B0E0E7E8F9E00C94A8096C01EB0179
:101312008A017B01E40EF51ECE15DF0541F08991AD
:10132200B601082E000C990B0E94E605F5CFC80104
:0A133200CDB7DEB7E8E00C94F10936
:10133C002F923F924F925F926F927F928F929F92D9
:10134C00AF92BF92CF92DF92EF92FF920F931F93C7
:10135C00CF93DF93CDB7DEB7CA1BDB0BCDBFDEBFA0
:02136C000994E2
:10136E00A0E0B0E0EDEBF9E00C94AE09AE014B5FFE
:10137E005F4FFA0161917191AF01E0913761F09188
:10138E003861808191810E94CF09E2E00C94F709C7
:10139E00A2E0B0E0E5EDF9E00C94AC098C014983D4
:1013AE005A83AE014F5F5F4F0E94C106F801208144
:1013BE0024FF02C08FEF9FEF2296E4E00C94F50914
:1013CE002A88398848885F846E847D848C849B84C7
:1013DE00AA84B984C884DF80EE80FD800C811B81D5
:1013EE00AA81B981CE0FD11DCDBFDEBFED0108950B
:1013FE00E0E0F6E0118280E285831282138214828D
:10140E00118681E0828716821386128A138A108AC9
:08141E00118A808380E008952B
:10142600E0E0FBE084E090E08487958712861386EF
:1014360011821086148215821682118681E08083BD
:02144600089507
:101448008F938FB78F93EF93FF93E0E0F8E0848159
:1014580080648483FF91EF918F918FBF8F9118954E
:101468000E9432060E94ED030E94FF090E94130A9F
:101478000E94A0070E94520A80E00E94A908FCCF9F
:10148800FC01AF014F5F5F4F2081222311F0FA0169
:0C149800F8CF9F01281B390BC9010895F3
:1014A40040E068ED80E191E00E94A00AE0E1F1E013
:0A14B40012821382789480E00895FC
:1014BE00CF93C82F0E94900A8823E1F3C09322088D
:0814CE0080E090E0CF91089549
:1014D600EC010E94B80A0E94B70ACE010E94B90A1E
:0614E600CE010E94AE0AD7
:1014EC00E0E0F6E09385892B838782858160828793
:0214FC00089551
:1014FE009C01215631092A31310510F48F75992737
:02150E0008953E
:101510009C01215431092A31310508F48062089573
:0C1520008091240885FB882780F908953D
:0A152C008F938FEF83B98F9118950C
:0A1536008F938FEF8BB98F911895FA
:0A1540001BBEFC0164BF4083089548
:08154A008091070681700895ED
:061552000E94340AFFCFE5
:041558000C940000EF
:04155C000E94840065
:021560000895EC
:021562000895EA
:021564000895E8
:021566000895E6
:021568000895E4
:02156A000895E2
:02156C000895E0
:02156E000895DE
:021570000895DC
:021572000895DA
:1015740068076C094C836A9074A07AC000806888FC
:0615840000846C8200816E
:10158A000300000000000000000000005F0A0000E5
:07159A00286E756C6C29003E
:0615A100286E696C2900B0
:0215A7003961A8
:02000004008278
:0C0000000000000000D008000000030019
:00000001FF
